:100000000C942A000C9418010C943C000C943C00B5
:100010000C943C000C943C000C943C000C943C0070
:100020000C943C000C943C000C943C000C943C0060
:100030000C943C000C943C000C943C000C943C0050
:100040000C943C000C943C000C943C000C943C0040
:100050000C943C0011241FBECFE5D8E0DEBFCDBF1D
:1000600020E0A0E6B0E001C01D92A037B207E1F7A2
:100070000E94FF010C94E9030C940000CF93DF93DE
:1000800000D0CDB7DEB79A83898380E00E94C20397
:10009000CE0101960E94EF0186E490E00E94C60323
:1000A000CE0101960E94F70180E00F900F90DF9142
:1000B000CF9108950F931F93CF93DF9300D0CDB7C7
:1000C000DEB79A83898380E00E94C20300E010E0DB
:1000D00012C0CE0101960E94EF0188E090E00E94DC
:1000E000C603CE0101960E94F70188E090E00E94CD
:1000F000C6030F5F1F4F053011055CF380E00F90C2
:100100000F90DF91CF911F910F9108950F931F933F
:10011000CF93DF9300D000D0CDB7DEB79A83898329
:100120007C836B8380E00E94C20300E010E01AC071
:10013000CE0101960E94EF01CE0103960E94EF01CD
:1001400088E090E00E94C603CE0101960E94F7016C
:10015000CE0103960E94F70188E090E00E94C6035A
:100160000F5F1F4F053011051CF380E00F900F90BB
:100170000F900F90DF91CF911F910F910895C6E6D8
:10018000D0E01882AEE6B0E01C92EAE6F0E0108221
:10019000198281E011968C9392E09183CCE6D0E0B5
:1001A0008883A4E6B0E08C93E8E6F0E080831982CF
:1001B00011968C93918386E690E00E94E7018EE68B
:1001C00090E00E94E7018AE690E00E94E701CE01FC
:1001D0000E94E70184E690E00E94E70188E690E053
:1001E0000E94E70180E00E94C20362E080E00E947A
:1001F000AE0380E00E949D038FB780688FBF80911F
:100200006600909167000E943E0080916E00909180
:100210006F000E945A0080916A0090916B000E94CA
:100220003E0080916E0090916F000E945A00E7CFCF
:100230001F920F920FB60F9211242F933F934F935B
:100240005F936F937F938F939F93AF93BF93EF933E
:10025000FF9380E00E94C20362E070E083E090E0E0
:100260000E946F03019721F481E08093600002C037
:100270001092600062E070E080E090E00E946F0306
:100280000197D9F580916000811137C08CE690E02C
:100290000E94EF0180916A0090916B000E943E00E5
:1002A0008AE690E00E94F701609164007091650019
:1002B00080916E0090916F000E9486008CE690E025
:1002C0000E94F70188E690E00E94EF0180916600AD
:1002D000909167000E943E0088E690E00E94F7013E
:1002E00080916E0090916F000E943E0080916A00A4
:1002F00090916B000E943E0059C060E070E080E089
:1003000090E00E946F03019749F061E070E080E0A7
:1003100090E00E946F03019709F048C0809160004F
:10032000811144C086E690E00E94F7018EE690E0DD
:100330000E94F70188E690E00E94EF01609164005E
:100340007091650080916E0090916F000E94860010
:1003500088E690E00E94F7018CE690E00E94EF01B1
:1003600080916A0090916B000E943E008AE690E0C6
:100370000E94F701609164007091650080916E00A9
:1003800090916F000E9486008CE690E00E94F70139
:1003900086E690E00E94EF018091640090916500F4
:1003A0000E945A0086E690E00E94F701FF91EF91CB
:1003B000BF91AF919F918F917F916F915F914F917D
:1003C0003F912F910F900FBE0F901F90189541E015
:1003D000FC01618180810E94040280E0089541E077
:1003E000FC01618180810E94E00280E0089540E08C
:1003F000FC01618180810E94E00280E008950E94FA
:10040000BF0080E090E00895683008F0CDC08130F2
:10041000C9F138F0823009F466C0833009F494C021
:10042000C5C0413061F42AB381E090E002C0880F7A
:10043000991F6A95E2F7822B8ABB83E008954111E8
:100440000DC02AB381E090E002C0880F991F6A9521
:10045000E2F7809582238ABB83E00895423009F059
:10046000A7C02AB381E090E002C0880F991F6A9567
:10047000E2F7982F909592239ABB9BB3892B8BBB65
:1004800083E00895413061F427B381E090E002C039
:10049000880F991F6A95E2F7822B87BB83E0089546
:1004A00041110DC027B381E090E002C0880F991F71
:1004B0006A95E2F78095822387BB83E008954230F6
:1004C00009F078C027B381E090E002C0880F991F3F
:1004D0006A95E2F7982F9095922397BB98B3892B52
:1004E00088BB83E00895413061F424B381E090E05B
:1004F00002C0880F991F6A95E2F7822B84BB83E0C4
:10050000089541110DC024B381E090E002C0880F2E
:10051000991F6A95E2F78095822384BB83E0089552
:10052000423009F049C024B381E090E002C0880F56
:10053000991F6A95E2F7982F9095922394BB95B3F3
:10054000892B85BB83E00895413061F421B381E0BC
:1005500090E002C0880F991F6A95E2F7822B81BB59
:1005600083E0089541110DC021B381E090E002C005
:10057000880F991F6A95E2F78095822381BB83E0FB
:1005800008954230D9F421B381E090E002C0880F91
:10059000991F6A95E2F7982F9095922391BB92B399
:1005A000892B82BB83E0089580E0089583E008955D
:1005B00083E0089583E0089583E0089583E008953B
:1005C000693008F080C0813031F138F0823009F4B0
:1005D00040C0833009F45AC078C041110DC02BB31C
:1005E00081E090E002C0880F991F6A95E2F780953C
:1005F00082238BBB83E00895413009F068C02BB3A0
:1006000081E090E002C0880F991F6A95E2F7822B83
:100610008BBB83E0089541110DC028B381E090E0C9
:1006200002C0880F991F6A95E2F78095822388BBE4
:1006300083E00895413009F04CC028B381E090E098
:1006400002C0880F991F6A95E2F7822B88BB83E06E
:10065000089541110DC025B381E090E002C0880FDC
:10066000991F6A95E2F78095822385BB83E0089500
:10067000413089F525B381E090E002C0880F991FD1
:100680006A95E2F7822B85BB83E0089541110DC086
:1006900022B381E090E002C0880F991F6A95E2F7CB
:1006A0008095822382BB83E008954130B1F422B368
:1006B00081E090E002C0880F991F6A95E2F7822BD3
:1006C00082BB83E0089580E0089583E0089583E08D
:1006D000089583E0089583E0089583E008958130CC
:1006E00079F028F08230A9F08330E1F024C089B39A
:1006F00090E002C0959587956A95E2F7817008951C
:1007000086B390E002C0959587956A95E2F781706F
:10071000089583B390E002C0959587956A95E2F7B6
:100720008170089580B390E002C0959587956A9591
:10073000E2F78170089580E00895882319F08130F0
:1007400029F00AC08BB780648BBF03C08BB7806869
:100750008BBF8FB780688FBF80E00895882319F022
:10076000813041F00DC085B78C7F85BF85B7682B80
:1007700065BF06C085B7837F85BF85B7682B65BF1A
:1007800080E0089513BE82BF82E00895AC0183B774
:10079000846083BF10C008B600FEFDCF98B791609B
:1007A00098BF20916100309162002F5F3F4F3093DE
:1007B0006200209361002091610030916200241753
:1007C000350748F3109262001092610013BE82E078
:0607D0000895F894FFCF2C
:00000001FF
